:100000000C9472000C9493000C9493000C94930045
:100010000C9493000C9493000C9493000C94930014
:100020000C9493000C9493000C9493000C94930004
:100030000C9493000C9493000C9493000C949300F4
:100040000C9493000C9493000C9493000C949300E4
:100050000C9493000C9493000C9493000C94EA0875
:100060000C9493000C943E090C9493000C94930010
:100070000C9493000C9493000C9493000C949300B4
:100080000C9493000C9493000C9493000C949300A4
:100090000C9493000C9493000C9493000C94930094
:1000A0000C9493000C9493000C9493000C94930084
:1000B0000C9493000C9493000C9493000C94930074
:1000C0000C9493000C9493000C9493000C94930064
:1000D0000C9493000C9493000C9493000C94930054
:1000E0000C94930011241FBECFEFD1E2DEBFCDBF31
:1000F00000E00CBF12E0A0E0B2E0EAECFAE100E0C0
:100100000BBF02C007900D92AC30B107D9F725E0C4
:10011000ACE0B2E001C01D92AE39B207E1F70E9437
:10012000E3080C948F0A0C940000DC01CB016FB73C
:10013000F89445B1406455B15F7B37E02D9145B9E6
:10014000220F58F000C0000055B900C000C000C028
:1001500000C027FB315059F0F2CF000000C000C0B2
:1001600000C027FB315055B900C0000041F737E00F
:1001700045B966F000C000C055B900C000C000C05D
:1001800000002D910197D9F66FBF08952D91019729
:10019000000000C000C000C055B9000000C079F6E2
:1001A0006FBF0895CF92DF92EF92FF920F931F934C
:1001B000CF93DF93EC01162F0E940F0928812111A4
:1001C0001CC0112309F44DC009811A812B813C8187
:1001D0006B017C01C01AD10AE20AF30A9701860179
:1001E0000531110521053105E0F121E028836983FE
:1001F0007A838B839C8381E037C01123B1F02D81FA
:1002000021112FC009811A812B813C81DC01CB0196
:10021000801B910BA20BB30B893E9340A105B10546
:1002200000F181E08D8383E01FC009811A812B8159
:100230003C816B017C01C01AD10AE20AF30A9701E2
:100240008601053111052105310558F018826983B1
:100250007A838B839C838D81882329F01D8284E09F
:1002600003C080E001C082E0DF91CF911F910F9128
:10027000FF90EF90DF90CF900895CF92DF92EF92B2
:10028000FF920F931F93CF93DF93EC01162F042F50
:100290000E940F09288121110CC0112329F121E0AE
:1002A000288369837A838B839C8301111BC086E03A
:1002B0001CC0111119C009811A812B813C816B016D
:1002C0007C01C01AD10AE20AF30A970186010531BE
:1002D00011052105310540F0188269837A838B83EB
:1002E0009C8302C085E001C080E0DF91CF911F9127
:1002F0000F91FF90EF90DF90CF900895CF92DF9213
:10030000EF92FF92CF93DF93EC018881811102C0BD
:1003100082E088832DEC3CEC4CE45DE369817A81DA
:100320008B819C810E94930A6B017C0120E030E06C
:1003300040E85FE30E94AF0C18162CF0C982DA8205
:10034000EB82FC8208C080E090E0A0E8BFE38983F4
:100350009A83AB83BC83DF91CF91FF90EF90DF90C6
:10036000CF900895CF92DF92EF92FF92CF93DF93D9
:10037000EC012DEC3CEC4CE45DE369817A818B81EE
:100380009C810E94920A6B017C0120E030E0A9016F
:100390000E94FF0A18162CF4C982DA82EB82FC82D2
:1003A00005C019821A821B821C821882DF91CF91AC
:1003B000FF90EF90DF90CF900895FC018081823014
:1003C00051F082E0808380E090E0A0E8BFE3818389
:1003D0009283A383B4830895FC018081882329F04C
:1003E000108211821282138214820895FC0190817E
:1003F000992311F0933019F4CF010C94DD01915041
:10040000923018F4CF010C94EC010895CF93DF9350
:10041000FC012081222311F0233089F4EC0181E0DA
:1004200088830E940F096D837E838F8398878981DB
:100430009A81AB81BC8189879A87AB87BC87DF9122
:10044000CF910895CF93DF93EC0198819150923032
:1004500080F483E088830E940F096D837E838F83FD
:10046000988789819A81AB81BC8189879A87AB877C
:10047000BC87DF91CF910895FC019081992311F001
:10048000933019F4CF010C9406029150923018F475
:10049000CF010C94220208958F929F92AF92BF9247
:1004A000CF92DF92EF92FF920F931F93CF93DF9340
:1004B000EC018881813021F0833009F440C072C0A2
:1004C000C984DA84EB84FC840E940F090D811E81AB
:1004D0002F813885601B710B820B930B0E94A50B3B
:1004E0004B015C01A701960160E070E080E89FE3AA
:1004F0000E94920A9B01AC01C501B4010E94B40C98
:1005000020E030E04AE754E40E94040BA701960182
:100510000E94930A6B017C0120E030E040E85FE339
:100520000E94AF0C87FD34C080E090E0A0E8BFE3FC
:1005300089839A83AB83BC8382E0888333C0C98478
:10054000DA84EB84FC840E940F090D811E812F81C7
:100550003885601B710B820B930B0E94A50BA701C2
:1005600096010E94B40C20E030E048E454E40E947C
:10057000040B9B01AC01C701B6010E94920A6B01FA
:100580007C0120E030E0A9010E94FF0A18162CF43B
:10059000C982DA82EB82FC8205C019821A821B8230
:1005A0001C821882DF91CF911F910F91FF90EF90E5
:1005B000DF90CF90BF90AF909F908F900895CF9293
:1005C000DF92EF92FF92CF93DF93EC0120E030E0D7
:1005D00040E05DE36D857E858F8598890E94930A52
:1005E0006B017C0120E030E040E85FE30E94AF0C4B
:1005F00087FF05C0CD86DE86EF86F88A0CC020E036
:1006000030E040E85FE3C701B6010E94920A6D87BF
:100610007E878F87988BDF91CF91FF90EF90DF904F
:10062000CF900895CF92DF92EF92FF92CF93DF9316
:10063000EC0120E030E040E05DE36D857E858F8554
:1006400098890E94920A6B017C0120E030E0A901A8
:100650000E94FF0A87FD05C0CD86DE86EF86F88AF8
:100660000CC020E030E040E85FE3C701B6010E9423
:10067000930A6D877E878F87988BDF91CF91FF904C
:10068000EF90DF90CF900895CF92DF92EF92FF929C
:10069000CF93DF93EC0120E030E040E05DE3698937
:1006A0007A898B899C890E94930A6B017C0120E0E6
:1006B00030E040E85FE30E94AF0C18162CF0C98AC6
:1006C000DA8AEB8AFC8A08C080E090E0A0E8BFE309
:1006D000898B9A8BAB8BBC8BDF91CF91FF90EF9086
:1006E000DF90CF900895CF92DF92EF92FF92CF9359
:1006F000DF93EC0120E030E040E05DE369897A8936
:100700008B899C890E94920A6B017C0120E030E079
:10071000A9010E94FF0A87FD05C0C98ADA8AEB8A0F
:10072000FC8A04C0198A1A8A1B8A1C8ADF91CF911D
:10073000FF90EF90DF90CF900895CF92DF92EF92ED
:10074000FF92CF93DF93EC012DEC3CEC4CEC5DE39E
:100750006D857E858F8598890E94930A6B017C0147
:1007600020E030E040E85FE30E94AF0C18162CF068
:10077000CD86DE86EF86F88A08C080E090E0A0E8AB
:10078000BFE38D879E87AF87B88BDF91CF91FF90B6
:10079000EF90DF90CF900895CF92DF92EF92FF928B
:1007A000CF93DF93EC012DEC3CEC4CEC5DE36D85DD
:1007B0007E858F8598890E94920A6B017C0120E0DA
:1007C00030E0A9010E94FF0A87FD05C0CD86DE86C4
:1007D000EF86F88A04C01D861E861F86188ADF9160
:1007E000CF91FF90EF90DF90CF9008952F923F929E
:1007F0004F925F926F927F928F929F92AF92BF9231
:10080000CF92DF92EF92FF920F931F93CF93DF93DC
:10081000CDB7DEB72E970FB6F894DEBF0FBECDBFB3
:100820009E878D87CB01BA012801390120E030E095
:1008300044EB53E40E94B40C4B015C0120E030E037
:1008400044EB53E40E94FF0A882359F020E030E093
:1008500040E752E4C501B4010E94040B4B015C0166
:1008600003C0812C912C5401C501B4010E94E20BFC
:100870009B01AC01C501B4010E94920A6D837E8385
:100880008F839887A301920160E070E080E89FE386
:100890000E94920A9601A7010E94B40C362E272EC0
:1008A0008C0169877A878B871C87A30192016D81F0
:1008B0007E818F8198850E94B40C9B01AC0160E021
:1008C00070E080E89FE30E94920A9601A7010E94CF
:1008D000B40C69837A838B839C832D813E814F8105
:1008E000588560E070E080E89FE30E94920AA301CF
:1008F00092010E94B40C9B01AC0160E070E080E8C2
:100900009FE30E94920A9601A7010E94B40C2B015A
:100910003C0120E030E0A901C501B4010E94AF0C08
:1009200087FD0AC020E030E040E85FE3C501B40184
:100930000E94FF0A87FD6FC020E030E040E85FE3DF
:10094000C501B4010E94AF0C87FD0AC020E030E071
:1009500040E050E4C501B4010E94FF0A87FD65C074
:1009600020E030E040E050E4C501B4010E94AF0C4B
:1009700087FD0AC020E030E040E450E4C501B40146
:100980000E94FF0A87FD79C020E030E040E450E497
:10099000C501B4010E94AF0C87FD0AC020E030E021
:1009A00040E850E4C501B4010E94FF0A87FD45C03C
:1009B00020E030E040E850E4C501B4010E94AF0CF3
:1009C00087FD0AC020E030E040EA50E4C501B401F0
:1009D0000E94FF0A87FD38C020E030E040EA50E482
:1009E000C501B4010E94AF0C87FD3BC020E030E0A0
:1009F00040EC50E4C501B4010E94FF0A87FF31C0FA
:100A000049805A806B807C809101902F812F3C2CF3
:100A10002D2C870121C03C2C2D2C870162017301F4
:100A200049845A846B847C8428C0432C522C38011E
:100A300039802A800B811C8120C026013701C980A2
:100A4000DA80EB80FC8019C09101902F812F342C2B
:100A5000252C830126013701C32ED22EE92EF82E34
:100A60000CC0412C512C612C712CC12CD12CE12CAF
:100A7000F12C312C212C00E010E0832D922DD80197
:100A8000ED85FE8580839183A283B383C601D70160
:100A900084839583A683B783C201D301808791871E
:100AA000A287B387CF012E960FB6F894DEBF0FBE94
:100AB000CDBFDF91CF911F910F91FF90EF90DF900D
:100AC000CF90BF90AF909F908F907F906F905F90EE
:100AD0004F903F902F900895CF92DF92EF92FF9228
:100AE0000F931F93CF93DF93EC01FB01C180D28062
:100AF000E380F480018912892389348945855685EC
:100B0000678570890E94F603CE01DF91CF911F9116
:100B10000F91FF90EF90DF90CF9008950F931F9368
:100B2000CF93DF93CDB7DEB72C970FB6F894DEBF27
:100B30000FBECDBFBC01CE0101960E946C0520E026
:100B400030E04FE753E469817A818B819C810E9478
:100B5000B40C0E94760B062F20E030E04FE753E400
:100B600069857A858B859C850E94B40C0E94760BE2
:100B7000162F20E030E04FE753E46D817E818F81B6
:100B800098850E94B40C0E94760B702F812F2C96B2
:100B90000FB6F894DEBF0FBECDBFDF91CF911F918E
:100BA0000F910895CF93DF93EC016A8323E0629F56
:100BB000C00111240E946E0999838883DF91CF912F
:100BC000089590931402809313027093110260931E
:100BD000100250931702409316020895FC016330EF
:100BE00059F48281811103C081E08283089581508C
:100BF0008230E8F512820895623069F48281813092
:100C000011F4628308958230A9F3811130C080818C
:100C100091810C943C02643051F1663099F48281E8
:100C2000811104C0808191810C947E01813021F476
:100C3000808191810C94DF028230C9F4808191819E
:100C40000C944403653099F48281811104C0808141
:100C500091810C94B201813021F4808191810C94B6
:100C60001203823021F4808191810C9473030895E2
:100C7000FC01633051F48281811103C081E08283E1
:100C80000895813069F512820895623049F48281B5
:100C90008130C9F3811124C0808191810C94F601C7
:100CA0006430F1F0663069F48281811104C0808182
:100CB00091810C947E01813099F4808191810C9412
:100CC0009D03653069F48281811104C08081918126
:100CD0000C94B201813021F4808191810C94CC0379
:100CE0000895682F83E192E00C943806682F80E124
:100CF00092E00C94EE05E9E1F2E097838683718738
:100D0000608708953F924F925F926F927F928F9289
:100D10009F92AF92BF92CF92DF92EF92FF920F938A
:100D20001F93CF93DF930E940F0920ED37E040E03F
:100D300050E00E94410D8B01CB0168EE73E00E94F0
:100D40002D0D9C0162E370E00E942D0D6C01E0917D
:100D50001F02F09120023280832D65E00E94210D58
:100D6000D82F880FB32CB81AED2EF12CC90164EFDF
:100D700071E00E942D0DBC0180E090E00E94A50B67
:100D800020E030E04AEF53E40E94040B2B013C01C9
:100D9000B7010F2C000C880B990B0E94A70B9B012D
:100DA000AC01C301B2010E94B40C0E94760B23E097
:100DB000D29FC0011124F701A0E0B0E0A7014B0DC4
:100DC000511D609006027090070280900802A0906A
:100DD0001F02B090200270912A02E417F507ACF4CC
:100DE000E501A880B9809D01280F391F2A0D3B1D00
:100DF000E901772321F0688279828A8203C0188210
:100E000019821A8231961396E2CFD0912D022701D2
:100E1000A0E0B0E020E8722E66246A9444165506DD
:100E2000CCF4F501808091809D01280F391FF401D9
:100E3000E20FF31F1082DD2311F0618205C07723DA
:100E400011F0718201C011821282FFEF4F1A5F0A06
:100E50001396E4CFA0E0B0E020E030E0A62EB12C65
:100E60002E153F05CCF580912702811108C0809195
:100E70002902882399F0083E83E0180728F480E0CF
:100E80002A153B059CF016C0083EC3E01C0731F054
:100E900080E0DAE1CD16D10468F008C080912A0222
:100EA000882339F08FEF9FEF7FEF06C09FEF70EC44
:100EB00003C080E090E070E0E0911F02F09120021A
:100EC0000190F081E02DEA0FFB1F708391838283F4
:100ED0002F5F3F4F1396C4CF8091280281110DC020
:100EE00080912902811105C080912902811147C09A
:100EF0008EC0083EE3E01E07B8F7232D30E0F3E094
:100F00003F9E70011124A0E0B0E070E090900902D3
:100F1000B0900A02A0900B02792CDB2D8A2C42178C
:100F2000530714F7CD018E0D9F1DE0911F02F09124
:100F300020020190F081E02DE80FF91F26173707F6
:100F400024F49082B182A28203C0108211821282A4
:100F5000E0912102F09122020190F081E02DE80F52
:100F6000F91F2617370724F47082D183828203C0C9
:100F70001082118212822F5F3F4F1396D0CF093E0D
:100F8000134008F444C0232D30E083E0389EE00194
:100F9000112460E070E0A0910902B0910A02109162
:100FA0000B02BA2EFB2EE12E4217530784F5CB011C
:100FB0008C0F9D1FE0911F02F09120020190F081A3
:100FC000E02DE80FF91F0AE1C016D10420F0A0833C
:100FD000B183128303C0108211821282E091210238
:100FE000F09122020190F081E02DE80FF91F8AE1D3
:100FF000C816D10420F0B082F182E28203C01082D0
:10100000118212822F5F3F4F6D5F7F4FCDCFDF91F7
:10101000CF911F910F91FF90EF90DF90CF90BF90F5
:10102000AF909F908F907F906F905F904F903F9088
:10103000089544E852E06FE272E08CEB92E00E9487
:10104000E10567E772E082ED92E00E947B066EE1C7
:1010500082ED92E00E94D2056EE187E792E00E9465
:10106000D2056CE089E692E00C94D2050F931F93B1
:10107000CF93DF93CDB7DEB72C970FB6F894DEBFD2
:101080000FBECDBF6091990287EA92E00E94D20024
:1010900081110E94710640919B0260919A0284E640
:1010A00092E00E943D0181110E94710660919C02B4
:1010B00081E792E00E94D20081110E947606409161
:1010C0009E0260919D028DEA92E00E943D01811195
:1010D0000E9476060E9482068FE292E00E944C02F5
:1010E0008CEB92E00E944C0200E010E08FE292E074
:1010F0000E948E05E0916902F0916A02E00FF11FF3
:101100006083718382830D5F1F4F8091690290918C
:101110006A020432110551F764E270E00E94950002
:101120006FE272E0CE0101960E946C0520E030E093
:101130004FE753E469817A818B819C810E94B40CD2
:101140000E94760B67BD20E030E04FE753E46D81ED
:101150007E818F8198850E94B40C0E94760B6093EB
:10116000B30020E030E04FE753E469857A858B8552
:101170009C850E94B40C0E94760B6093B4000E9480
:101180000F0928EE33E040E050E00E94410D21E0DD
:10119000653F71408105910508F020E0822F81951F
:1011A00087BD6AE570E08091D2029091D3022C96BF
:1011B0000FB6F894DEBF0FBECDBFDF91CF911F9168
:1011C0000F910C9495000E9418090E9419080E9422
:1011D0003608FDCF1F920F920FB60F9211248F93F6
:1011E0009F93AF93BF9380910C0290910D02A091B9
:1011F0000E02B0910F020196A11DB11D80930C0249
:1012000090930D02A0930E02B0930F02BF91AF9185
:101210009F918F910F900FBE0F901F901895609126
:101220000C0270910D0280910E0290910F020895B0
:1012300084B5836884BD85B5836085BDEEE6F0E046
:10124000808181608083E0EBF0E08081836A80832D
:10125000E1EBF0E0808183608083279A249AE1E0CB
:10126000F1E080818064808381B38FEF81BBE8E00F
:10127000F1E090818083509A789408951F920F92A4
:101280000FB60F9211240BB60F922F938F939F934B
:10129000EF93FF938091DC029091DD022091C600D4
:1012A000FC01E252FD4F208301968C3B22E0920725
:1012B00029F09093DD028093DC0204C01092DD02DD
:1012C0001092DC02FF91EF919F918F912F910F90DF
:1012D0000BBE0F900FBE0F901F9018950F931F938A
:1012E000CF93DF938230910510F482E090E0E0919B
:1012F0009C05F0919D0520E030E0A0E0B0E0309743
:1013000019F1408151810281138148175907C8F0B2
:101310008417950769F4109731F012960C93129781
:1013200013961C9327C000939C0510939D0522C023
:101330002115310519F04217530718F49A01BD0120
:10134000EF01DF01F801DBCF21153105F9F0281B92
:10135000390B2430310580F48A819B816115710538
:1013600021F0FB019383828304C090939D058093B9
:101370009C05FE01329644C0FE01E20FF31F8193EB
:10138000919322503109398328833AC020919A05DC
:1013900030919B05232B41F42091020230910302EE
:1013A00030939B0520939A05209100023091010211
:1013B0002115310541F42DB73EB7409104025091FB
:1013C0000502241B350BE0919A05F0919B05E2176D
:1013D000F307A0F42E1B3F0B2817390778F0AC0158
:1013E0004E5F5F4F2417350748F04E0F5F1F509335
:1013F0009B0540939A058193919302C0E0E0F0E051
:10140000CF01DF91CF911F910F910895CF93DF937B
:10141000009709F481C0FC01329713821282A091D7
:101420009C05B0919D05109781F420813181820F38
:10143000931F20919A0530919B052817390751F584
:10144000F0939B05E0939A0567C0ED0120E030E042
:10145000CE17DF0740F44A815B819E01411551059B
:10146000F1F0EA01F5CFD383C28340815181840F2B
:10147000951FC817D90759F488819981840F951F42
:101480000296918380838A819B8193838283211535
:10149000310529F4F0939D05E0939C053DC0E901D9
:1014A000FB83EA8349915991C40FD51FEC17FD07BF
:1014B00061F480819181840F951F0296E9019983DF
:1014C0008883828193819B838A83E0E0F0E0129697
:1014D0008D919C911397009719F0FD01DC01F7CFD6
:1014E0008D919C9111979D012E5F3F4F820F931F0D
:1014F00020919A0530919B052817390769F4309798
:1015000029F410929D0510929C0502C0138212824C
:10151000B0939B05A0939A05DF91CF910895F8941D
:101520000C94630D5058BB27AA270E94AA0A0C945A
:101530005D0C0E944F0C38F00E94560C20F039F4DC
:101540009F3F19F426F40C944C0C0EF4E095E7FB45
:101550000C941D0CE92F0E946E0C58F3BA17620709
:1015600073078407950720F079F4A6F50C94A80C6E
:101570000EF4E0950B2EBA2FA02D0B01B9019001AE
:101580000C01CA01A0011124FF27591B99F0593FF2
:1015900050F4503E68F11A16F040A22F232F342F3A
:1015A0004427585FF3CF469537952795A795F04088
:1015B0005395C9F77EF41F16BA0B620B730B840B9D
:1015C000BAF09150A1F0FF0FBB1F661F771F881F55
:1015D000C2F70EC0BA0F621F731F841F48F48795AD
:1015E00077956795B795F7959E3F08F0B0CF93959F
:1015F000880F08F09927EE0F9795879508950E9418
:10160000F90B08F481E008950E94180B0C945D0C0E
:101610000E94560C58F00E944F0C40F029F45F3F96
:1016200029F00C941D0C51110C94A90C0C944C0C29
:101630000E946E0C68F39923B1F3552391F3951B27
:10164000550BBB27AA2762177307840738F09F5FE3
:101650005F4F220F331F441FAA1FA9F335D00E2E50
:101660003AF0E0E832D091505040E695001CCAF7BD
:101670002BD0FE2F29D0660F771F881FBB1F261780
:1016800037074807AB07B0E809F0BB0B802DBF0157
:10169000FF2793585F4F3AF09E3F510578F00C9426
:1016A0001D0C0C94A90C5F3FE4F3983ED4F386958F
:1016B00077956795B795F7959F5FC9F7880F911D47
:1016C0009695879597F90895E1E0660F771F881F33
:1016D000BB1F621773078407BA0720F0621B730BE6
:1016E000840BBA0BEE1F88F7E09508950E94760CE4
:1016F00088F09F5798F0B92F9927B751B0F0E1F0D3
:10170000660F771F881F991F1AF0BA95C9F714C082
:10171000B13091F00E94A80CB1E008950C94A80C8F
:10172000672F782F8827B85F39F0B93FCCF38695BB
:1017300077956795B395D9F73EF490958095709518
:1017400061957F4F8F4F9F4F0895E89409C097FB95
:101750003EF490958095709561957F4F8F4F9F4F88
:101760009923A9F0F92F96E9BB279395F6958795CC
:1017700077956795B795F111F8CFFAF4BB0F11F48F
:1017800060FF1BC06F5F7F4F8F4F9F4F16C0882336
:1017900011F096E911C0772321F09EE8872F762F6C
:1017A00005C0662371F096E8862F70E060E02AF0AD
:1017B0009A95660F771F881FDAF7880F9695879599
:1017C00097F908950E94900C90F09F3748F491117A
:1017D00016F00C94A90C60E070E080E89FEB08958F
:1017E00026F41B16611D711D811D0C94230C0C9495
:1017F0003E0C990F0008550FAA0BE0E8FEEF1616F5
:101800001706E807F907C0F012161306E407F507F4
:1018100098F0621B730B840B950B39F40A2661F068
:10182000232B242B252B21F408950A2609F4A1400B
:10183000A6958FEF811D811D089597F99F6780E818
:1018400070E060E00895882371F4772321F09850C8
:10185000872B762F07C0662311F499270DC090516E
:10186000862B70E060E02AF09A95660F771F881F3C
:10187000DAF7880F9695879597F908959F3F31F08D
:10188000915020F4879577956795B795880F911DAE
:101890009695879597F908959FEF80EC0895002419
:1018A0000A941616170618060906089500240A94C5
:1018B00012161306140605060895092E0394000C4B
:1018C00011F4882352F0BB0F40F4BF2B11F460FFDA
:1018D00004C06F5F7F4F8F4F9F4F089557FD905803
:1018E000440F551F59F05F3F71F04795880F97FBE4
:1018F000991F61F09F3F79F087950895121613069E
:101900001406551FF2CF4695F1DF08C016161706CC
:101910001806991FF1CF8695710561050894089501
:101920000E94760CA0F0BEE7B91788F4BB279F3859
:1019300060F41616B11D672F782F8827985FF7CFB0
:10194000869577956795B11D93959639C8F3089557
:10195000E894BB2766277727CB0197F908950E9463
:10196000F90B08F48FEF08950E94C70C0C945D0CDE
:101970000E944F0C38F00E94560C20F0952311F075
:101980000C941D0C0C944C0C11240C94A90C0E946A
:101990006E0C70F3959FC1F3950F50E0551F629F39
:1019A000F001729FBB27F00DB11D639FAA27F00DB8
:1019B000B11DAA1F649F6627B00DA11D661F829FDF
:1019C0002227B00DA11D621F739FB00DA11D621FC4
:1019D000839FA00D611D221F749F3327A00D611DE1
:1019E000231F849F600D211D822F762F6A2F1124C3
:1019F0009F5750409AF0F1F088234AF0EE0FFF1FF6
:101A0000BB1F661F771F881F91505040A9F79E3F4C
:101A1000510580F00C941D0C0C94A90C5F3FE4F36D
:101A2000983ED4F3869577956795B795F795E795A2
:101A30009F5FC1F7FE2B880F911D9695879597F9AB
:101A40000895991B79E004C0991F961708F0961B1A
:101A5000881F7A95C9F780950895AA1BBB1B51E191
:101A600007C0AA1FBB1FA617B70710F0A61BB70B0E
:101A7000881F991F5A95A9F780959095BC01CD01B3
:101A80000895A1E21A2EAA1BBB1BFD010DC0AA1FBF
:101A9000BB1FEE1FFF1FA217B307E407F50720F0D7
:101AA000A21BB30BE40BF50B661F771F881F991F52
:101AB0001A9469F760957095809590959B01AC019B
:0A1AC000BD01CF010895F894FFCF97
:0C1ACA0000009E052000FFFFFFC0FF0091
:00000001FF
